:020000040000FA
:100000000C947C000C94A4000C94A4000C94800824
:100010000C94A4000C94C7080C94A4000C94A400A5
:100020000C94A4000C94A4000C94A4000C94A400C0
:100030000C94A4000C94A4000C94A4000C94A400B0
:100040000C9417070C94A4000C94E5060C94BF06BE
:100050000C94A4000C94A4000C94A4000C94A40090
:100060000C9461070C94A4004E414E494E495459DA
:10007000494E46CDCCCC3D0AD7233C17B7D1387773
:10008000CC2B329595E6241FB14F0A000020410089
:1000900000C84200401C4620BCBE4CCA1B0E5AAED3
:1000A000C59D7400000000240027002A0000000005
:1000B00000250028002B00040404040404040402A6
:1000C00002020202020303030303030102040810F5
:1000D00020408001020408102001020408102000C2
:1000E00000000800020100000304070000000000F7
:1000F000000000000E09690D11241FBECFEFD8E0EB
:10010000DEBFCDBF12E0A0E0B1E0E0E3F8E202C064
:1001100005900D92A831B107D9F723E0A8E1B2E02C
:1001200001C01D92A338B207E1F710E0CBE7D0E0A1
:1001300004C02197FE010E94FD11CA37D107C9F7FB
:100140000E944C090C940B140C940000E091BB022B
:10015000F091BC02309729F01092B6021092B502CD
:1001600009940895CF93DF93AC01E091B902F09127
:10017000BA023097F1F09091B8028091B7029817C7
:10018000C0F090E0292F30E02617370754F4D9014A
:10019000A85EBD4F240F351FE90128812C939F5F76
:1001A000F1CF1092B8026093B702CB01DF91CF91EB
:1001B0000994DF91CF910895AF92BF92CF92DF92D1
:1001C000EF92FF920F931F93CF93DF936C017B010C
:1001D0008B01040F151FEB015E01AE18BF08C0179D
:1001E000D10759F06991D601ED91FC910190F08110
:1001F000E02DC6010995892B79F7C501DF91CF91D3
:100200001F910F91FF90EF90DF90CF90BF90AF9034
:100210000895FC01538D448D252F30E0842F90E00C
:10022000821B930B541710F0CF96089501970895F1
:10023000FC01918D828D981761F0A28DAE0FBF2FBA
:10024000B11D5D968C91928D9F5F9F73928F90E010
:1002500008958FEF9FEF0895FC01918D828D98177F
:1002600031F0828DE80FF11D858D90E008958FEFBC
:100270009FEF0895FC01918D228D892F90E0805C85
:100280009F4F821B91098F73992708958EEC92E0FE
:100290000E943A0121E0892B09F420E0822F089581
:1002A00080E090E0892B29F00E94460181110C9496
:1002B00000000895FC01A48DA80FB92FB11DA35A09
:1002C000BF4F2C91848D90E001968F739927848F76
:1002D000A689B7892C93A089B1898C918370806499
:1002E0008C93938D848D981306C00288F389E02D3A
:1002F00080818F7D80830895EF92FF920F931F93EB
:10030000CF93DF93EC0181E0888F9B8D8C8D9813C8
:100310001AC0E889F989808185FF15C09FB7F894D4
:10032000EE89FF896083E889F98980818370806420
:1003300080839FBF81E090E0DF91CF911F910F916B
:10034000FF90EF900895F62E0B8D10E00F5F1F4F7A
:100350000F731127E02E8C8D8E110CC00FB607FC89
:10036000FACFE889F989808185FFF5CFCE010E9417
:100370005A01F1CFEB8DEC0FFD2FF11DE35AFF4F2A
:10038000F0829FB7F8940B8FEA89FB8980818062A5
:10039000CFCFCF93DF93EC01888D8823B9F0AA8962
:1003A000BB89E889F9898C9185FD03C0808186FD30
:1003B0000DC00FB607FCF7CF8C9185FFF2CF80817F
:1003C00085FFEDCFCE010E945A01E9CFDF91CF9199
:1003D000089590E0FC01E152FF4F2491FC01E553A8
:1003E000FF4F3491FC01E954FF4FE491EE23C9F033
:1003F000222339F0233001F1A8F4213019F1223001
:1004000029F1F0E0EE0FFF1FE355FF4FA591B491E6
:100410008FB7F894EC91611126C030953E233C9340
:100420008FBF08952730A9F02830C9F0243049F74C
:10043000809180008F7D03C0809180008F778093B2
:100440008000DFCF84B58F7784BDDBCF84B58F7D0F
:10045000FBCF8091B0008F778093B000D2CF809196
:10046000B0008F7DF9CF3E2BDACFCF93DF9390E0B2
:10047000FC01E553FF4F249189549F4FFC01849167
:100480008823D1F090E0880F991FFC01ED55FF4FB4
:10049000A591B491FC01E355FF4FC591D491623011
:1004A00071F49FB7F8943C91822F809583238C93AD
:1004B000E8812E2B28839FBFDF91CF9108958FB7BE
:1004C000F894EC912E2B2C938FBFF6CF20915E02E7
:1004D000260F3327331F21323105ECF4209182029D
:1004E000FC0190E080E0243069F082E00895A09162
:1004F0005E022191AC01425C5D4FA40FB52FB11D8E
:100500002C930196861798F380915E02680F609392
:100510005E0280E0089581E008951092820281E0F9
:10052000809384021092830261E082E10E94E901DB
:1005300061E083E10E94E901E9EBF0E080818E7FD8
:10054000808380818D7F808388E48093B80085E4F8
:100550008093BC0008950895E091B8028091B7029D
:10056000E81730F4F0E0E85EFD4F808190E00895F8
:100570008FEF9FEF08959091B8028091B7022FEF0F
:100580003FEF981748F4E92FF0E0E85EFD4F208137
:1005900030E09F5F9093B802C90108958091B7023F
:1005A0009091B802891B990B0895CF93DF93CB01EB
:1005B000EA01642F0E946602CE01DF91CF91089577
:1005C000CF93DF931F92CDB7DEB7698361E0CE0191
:1005D00001960E94660281E090E00F90DF91CF913A
:1005E000089590E080E008950F931F93CF93DF93D9
:1005F00097FF03C09195819591092FEF33E0DC01BE
:100600000E94F61124E630E040E050E00E944510E0
:10061000E901890161E08BE00E943502209741F4F5
:1006200060E08BE0DF91CF911F910F910C94E90175
:10063000CF3FD10511F461E0F4CFEAEEF0E0E491B0
:10064000E33039F140F4E130B1F0E230E9F0003864
:1006500011058CF7E5CFE73031F1E83061F1E43096
:10066000B1F780918000806280938000D0938B00EE
:10067000C0938A0004C084B5806884BDC7BDDF9183
:10068000CF911F910F91089584B5806284BDC8BD3C
:10069000F6CF80918000806880938000D09389009D
:1006A000C0938800ECCF8091B00080688093B00048
:1006B000C093B300E4CF8091B00080628093B0001B
:1006C000C093B400DCCFF894FC011382148215822D
:1006D000168278940895FC011616170634F4628188
:1006E00081E0682780810C94E901672B11F0628119
:1006F000F9CF0895CF93DF93EC01862F6883498368
:100700002A831B821C821D821E8261E00E943502A8
:1007100062E08981DF91CF910C943502FB01019059
:100720000020E9F73197AF01461B570BDC01ED9133
:10073000FC910280F381E02D0994CF93DF93BC01FB
:100740008EEC92E00E948E03EC016CE271E08EEC84
:1007500092E00E948E038C0F9D1FDF91CF91089530
:1007600090E080E00E94F40260E084E00E94E901F1
:100770001092CC021092CB028FE291E00C949D0378
:100780008F929F92AF92BF920F931F93CF93DF935D
:10079000CDB7DEB7A1970FB6F894DEBF0FBECDBFC1
:1007A00019A2423008F44AE08E010F5D1F4F842EDB
:1007B000912CB12CA12CA50194010E94A610E62F2A
:1007C000B901CA01EA3004F5E05DD801EE938D016C
:1007D000232B242B252B79F790E080E0109729F02C
:1007E000BD018EEC92E00E948E03A1960FB6F894A4
:1007F000DEBF0FBECDBFDF91CF911F910F91BF9094
:10080000AF909F908F900895E95CDFCFCF92DF92F9
:10081000EF92FF92CF93DF936B017C016DE28EEC40
:1008200092E00E947C01EC0166277727CB016C19CE
:100830007D098E099F094AE00E94C0038C0F9D1F0D
:10084000DF91CF91FF90EF90DF90CF900895CF93FD
:10085000DF9397FF0EC00E940604EC016CE271E08A
:100860008EEC92E00E948E038C0F9D1FDF91CF9142
:1008700008954AE00E94C003F0CF4F925F926F92BA
:100880007F928F929F92AF92BF92CF92DF92EF9220
:10089000FF920F931F93CF936B017C01742EAC01D9
:1008A0009B010E94F1116FE371E0811126C04601A6
:1008B0005701E894B7F82FEF3FEF4FE75FE7C50127
:1008C000B4010E94F11181110CC02FEF3FEF4FE7EF
:1008D0005FE7C501B4010E941E0F63E471E01816C2
:1008E00064F02FEF3FEF4FE75FE4C701B6010E94CE
:1008F000EC111816ACF467E471E08EEC92E0CF9145
:100900001F910F91FF90EF90DF90CF90BF90AF902D
:100910009F908F907F906F905F904F900C948E037C
:100920002FEF3FEF4FE75FECC701B6010E941E0FAC
:1009300087FDE1CF20E030E0A901C701B6010E94A8
:100940001E0F10E000E087FF0AC06DE28EEC92E01F
:100950000E947C018C01F7FAF094F7F8F094C0E063
:1009600060E070E080E09FE37C1641F020E030E042
:1009700040E251E40E944411CF5FF6CFA7019601F7
:100980000E94D8102B013C010E94BD114B015C015B
:100990004AE00E94C0037C01E00EF11ECC23C1F1AD
:1009A000C501B4010E94230F9B01AC01C301B20138
:1009B0000E94D7104B015C016EE28EEC92E00E9427
:1009C0007C01E80EF91EC15018F120E030E040E251
:1009D00051E4C501B4010E94840F2B013C010E9427
:1009E000BD114B01B12CA12C4AE0C501B4010E94FC
:1009F000C003E80EF91EC501B4010E94230F9B013C
:100A0000AC01C301B2010E94D7104B015C01DBCFE6
:100A1000C701CF911F910F91FF90EF90DF90CF9082
:100A2000BF90AF909F908F907F906F905F904F900E
:100A30000895FC0180819181009711F00C949F1220
:100A40000895FB0144815581FC01248135812417DF
:100A5000350778F080819181009759F0FB01608122
:100A600071816115710529F00E94FD1321E0892B28
:100A700009F020E0822F08950F931F93CF93DF9307
:100A8000EC0188819981009759F02A813B812617D2
:100A9000370730F081E0DF91CF911F910F910895DA
:100AA0008B016F5F7F4F0E942813009759F0998345
:100AB00088831B830A832C813D81232B59F7FC01FA
:100AC0001082E8CF80E0E7CFEF92FF920F931F9361
:100AD000CF93DF93EC017B018A01BA010E943C05B0
:100AE00028813981811114C02115310519F0C901FE
:100AF0000E949F12198218821D821C821B821A82F8
:100B0000CE01DF91CF911F910F91FF90EF9008954B
:100B10001D830C83B701C9010E94F613F1CFFC01BC
:100B2000118210821382128215821482FB010190BD
:100B30000020E9F73197AF01461B570B0C94640571
:100B4000CF93DF9300D000D000D0CDB7DEB7809137
:100B5000CB029091CC0260E571E0892B11F46BE43B
:100B600071E0CE0101960E948F0569817A8161153D
:100B7000710521F08BE693E00E948E03CE01019671
:100B80000E94190526960FB6F894DEBF0FBECDBFA2
:100B9000DF91CF910895AF92BF92CF92DF92EF9203
:100BA000FF920F931F93CF93DF93EC016B015A01D8
:100BB00079012417350720F48B2D5901E42EF82EE6
:100BC0006EE271E0CE010E948F05D60114960D9160
:100BD0001C91A016B10628F5E016F10608F487016D
:100BE000D601ED91FC911197E00FF11FF08010827A
:100BF0006D917C916A0D7B1D61157105F1F0FB0112
:100C000001900020E9F73197AF01461B570BCE0149
:100C10000E946405F60180819181080F191FD80197
:100C2000FC92CE01DF91CF911F910F91FF90EF9039
:100C3000DF90CF90BF90AF90089588819981009701
:100C400011F00E949F12198218821D821C821B8241
:100C50001A82E0CF0F931F93CF93DF9300D0CDB7CD
:100C6000DEB79091B7028091B802981739F18BE600
:100C700093E00E94BB0289831A8200917B0310914A
:100C80007C030F5F1F4FB80187E793E00E943C058C
:100C9000882339F3209177033091780380917B0387
:100CA00090917C03BE016F5F7F4F820F931F0E9464
:100CB000F61310937C0300937B03D3CF81E08093E2
:100CC000CD020F900F90DF91CF911F910F9108955A
:100CD000CF93DF9385ED8093BC0080913A02909191
:100CE0003B02A0913C02B0913D020796A11DB11DAF
:100CF00023E0B695A795979587952A95D1F72091EA
:100D0000BC0024FD03C01092820236C040913A021A
:100D100050913B0260913C0270913D02452B462B65
:100D2000472B69F30097A105B10541F02AE22A9506
:100D3000F1F700C00197A109B109E1CF8091390213
:100D400091E0909338028823B9F0C091B800D09117
:100D5000BA008091BC008A7B8093BC0060E082E195
:100D60000E94E90160E083E10E94E9010E948D0296
:100D7000D093BA00C093B800DF91CF9108951F922D
:100D80000F920FB60F9211242F933F934F935F93BF
:100D90006F937F938F939F93AF93BF93EF93FF9343
:100DA0008EEC92E00E945A01FF91EF91BF91AF91BA
:100DB0009F918F917F916F915F914F913F912F9173
:100DC0000F900FBE0F901F9018951F920F920FB6A5
:100DD0000F9211242F938F939F93EF93FF93E091A2
:100DE000DE02F091DF028081E091E402F091E50201
:100DF00082FD1BC090818091E7028F5F8F732091ED
:100E0000E802821741F0E091E702F0E0E253FD4F83
:100E1000958F8093E702FF91EF919F918F912F9192
:100E20000F900FBE0F901F9018958081F4CF1F92E6
:100E30000F920FB60F9211242F933F938F939F938E
:100E4000AF93BF938091AD029091AE02A091AF029B
:100E5000B091B0023091AC0223E0230F2D3758F54A
:100E60000196A11DB11D2093AC028093AD02909319
:100E7000AE02A093AF02B093B0028091A80290910D
:100E8000A902A091AA02B091AB020196A11DB11DC9
:100E90008093A8029093A902A093AA02B093AB02F8
:100EA000BF91AF919F918F913F912F910F900FBE66
:100EB0000F901F90189526E8230F0296A11DB11DD3
:100EC000D2CF1F920F920FB60F9211242F933F9300
:100ED0004F935F936F937F938F939F93AF93BF9342
:100EE000EF93FF938091B900887F803609F44AC060
:100EF000F0F5883209F4A7C018F5803109F49BC0D9
:100F0000B8F4882309F4F9C0883009F494C0FF913B
:100F1000EF91BF91AF919F918F917F916F915F9171
:100F20004F913F912F910F900FBE0F901F901895EA
:100F3000883109F488C0803251F78093810214C04F
:100F4000803409F49DC040F48033B9F38833F9F656
:100F50008093810285ECB0C0803509F485C0883566
:100F600009F496C0883499F60E946806D0CF883973
:100F700009F48CC038F5883729F050F4883611F020
:100F8000803729F683E0809382021092800257C056
:100F9000883809F47BC0803919F0803809F0B7CF60
:100FA00080918002803208F071C0E091800281E07F
:100FB0008E0F809380028091BB00F0E0E05AFD4FDD
:100FC00080833DC0803B39F0E0F4803A09F479C079
:100FD000883A09F09CCF84E08093820210925F02ED
:100FE00010925E02E091B302F091B40209958091F3
:100FF0005E0281110FC081E080935E0210923E027A
:1010000009C0803C09F4A6CF883C09F4A3CF883BF3
:1010100009F07DCFE0915F0281E08E0F80935F0247
:10102000F0E0E25CFD4F80818093BB0090915F0215
:1010300080915E0229C08091A7028093BB0085EC5D
:101040008093BC0064CF9091A6028091A50298176E
:1010500058F5E091A60281E08E0F8093A602F0E0A1
:10106000EB57FD4F8081E9CFE091A60281E08E0F22
:101070008093A6028091BB00F0E0EB57FD4F808388
:101080009091A6028091A5029817C8F285E8D8CF62
:10109000E091A60281E08E0F8093A6028091BB00B2
:1010A000F0E0EB57FD4F80838091840281115CCF8B
:1010B00081E08093830284EA8093BC0010928202D4
:1010C00026CF85EC8093BC00109282028091800232
:1010D000803230F4E0918002F0E0E05AFD4F10825F
:1010E0006091800270E0E091B102F091B20280E67E
:1010F00092E00995109280020ACF1092810234CFBB
:101100001F920F920FB60F9211244F935F936F931C
:101110007F938F939F93AF93BF93EF93FF9393B17D
:101120008091BD0289279093BD0282FF10C0E0919B
:10113000C502F091C60243815481658176814F5F7B
:101140005F4F6F4F7F4F438354836583768384FF64
:101150000FC0E091C302F091C40283819481A58104
:10116000B6810196A11DB11D83839483A583B683A7
:10117000FF91EF91BF91AF919F918F917F916F916F
:101180005F914F910F900FBE0F901F9018951F9277
:101190000F920FB60F9211244F935F936F937F932B
:1011A0008F939F93AF93BF93EF93FF9399B18091E8
:1011B000BE0289279093BE0285FF10C0E091C9024C
:1011C000F091CA0243815481658176814F5F5F4F00
:1011D0006F4F7F4F438354836583768387FF0FC0B0
:1011E000E091C702F091C80283819481A581B68104
:1011F0000196A11DB11D83839483A583B683FF91BE
:10120000EF91BF91AF919F918F917F916F915F917E
:101210004F910F900FBE0F901F901895EEECF2E0DB
:101220001382128288EE93E0A0E0B0E0848395837D
:10123000A683B7832CE031E03183208325EC30E0B6
:101240003587248724EC30E03787268720EC30E090
:10125000318B208B21EC30E0338B228B22EC30E081
:10126000358B248B26EC30E0378B268B118E128E3B
:10127000138E148EEBE6F3E013821282848395833F
:10128000A683B7838EE191E0918380836EE271E063
:1012900087E793E00C948F05CF93DF93CDB7DEB74C
:1012A0002C970FB6F894DEBF0FBECDBF789484B5EF
:1012B000826084BD84B5816084BD85B5826085BD52
:1012C00085B5816085BD80916E00816080936E00E0
:1012D00010928100809181008260809381008091D2
:1012E0008100816080938100809180008160809383
:1012F00080008091B10084608093B1008091B00043
:1013000081608093B00080917A00846080937A003D
:1013100080917A00826080937A0080917A00816067
:1013200080937A0080917A00806880937A0010928E
:10133000C100E091DE02F091DF0282E08083E09163
:10134000DA02F091DB021082E091DC02F091DD0222
:101350008FEC80831092E602E091E202F091E302CA
:1013600086E08083E091E002F091E102808180617B
:101370008083E091E002F091E102808188608083C7
:10138000E091E002F091E102808180688083E09149
:10139000E002F091E10280818F7D808386E591E01B
:1013A0000E949D0361E084E00E94350260E084E0D9
:1013B0000E94E90161E08BE00E94350261E08BE070
:1013C0000E94350260E08BE00E94E90187E090E036
:1013D0000E9403128C0121E045E062E00E947A0342
:1013E0001093CA020093C90287E090E00E940312A2
:1013F0008C0120E047E063E00E947A031093C8026A
:101400000093C70287E090E00E9403128C0120E065
:101410004AE069E00E947A031093C6020093C50275
:1014200087E090E00E9403128C0121E04CE06DE027
:101430000E947A031093C4020093C30289B180937F
:10144000BE0283B18093BD02809168008560809365
:10145000680080916D00806A80936D0080916B00C0
:10146000846180936B001092B8021092B7021092C0
:10147000B6021092B5020E948D0286EA90E0909327
:10148000B4028093B30282EB90E09093B202809317
:10149000B10280E18093BA008AE296E09093BA02AA
:1014A0008093B90280EA95E09093BC028093BB02DE
:1014B0008BE691E00E949D038091CD02882309F480
:1014C000A5C01092CD0218861F821A8619861C8626
:1014D0001B8660917703709178036115710541F067
:1014E00040917B0350917C03CE0107960E946405D6
:1014F000CF80D884C114D10431F00B851C857601CE
:1015000001151105B1F40F8118850115110509F4B4
:1015100046C0F80181918F01882309F440C0082E4C
:10152000000C990B0E94E513F80131978083F1CFED
:10153000750157018FEFA81AB80AF7018081082EAC
:10154000000C990B0E94FD0E892B91F70150110997
:101550000C0D1D1DF8018081082E000C990B0E94B6
:10156000FD0E892B31F00E151F0518F001501109E1
:10157000F1CF0F5F1F4FA8014E195F095C874B87A2
:10158000CE14DF0420F4B701C6010E94ED13EF81F1
:10159000F8858B859C85E80FF91F1082B4CF64E92C
:1015A00071E08EEC92E00E948E034B855C856F812A
:1015B00078858EEC92E00E94DC006CE271E08EECAB
:1015C00092E00E948E0362EA71E0CE0101960E94D1
:1015D0008F05BE016F5F7F4FCE0107960E942105E8
:1015E000182FCE0101960E941905112309F498C005
:1015F0000E94B003CE0107960E94190550E040E01A
:101600006EE271E087E793E00E9464058091CB026F
:101610009091CC02019739F08091CB029091CC024D
:10162000029709F070C0E091C902F091CA02F894E3
:1016300083819481A581B6817894E091C702F0916D
:10164000C802F89483809480A580B6807894E09155
:10165000C502F091C602F894C380D480E580F6807C
:101660007894E091C302F091C402F894038114814C
:10167000258136817894B7FF07C0B095A0959095E5
:1016800081959F4FAF4FBF4FB7FE08C0B094A09455
:1016900090948094811C911CA11CB11C880D991DF3
:1016A000AA1DBB1DF7FE08C0F094E094D094C0942E
:1016B000C11CD11CE11CF11C8C0D9D1DAE1DBF1D5C
:1016C00037FF07C030952095109501951F4F2F4F7C
:1016D0003F4F800F911FA21FB31F22E0B595A79522
:1016E000979587952A95D1F74091BF025091C002F6
:1016F0006091C1027091C20284179507A607B707CF
:1017000014F00E94B00380E090E0892B09F4D4CE5D
:101710000E944601882309F4CFCE0E940000CCCE5F
:1017200067EA71E0CE0101960E948F05BE016F5FEE
:101730007F4FCE0107960E942105182FCE010196FA
:101740000E941905112309F4A5C02B853C8545E0AD
:1017500050E0BE01695F7F4FCE0101960E94CB052C
:1017600089819A81412C512C3201009721F00E94ED
:101770006D0D2B013C01CE0101960E9419050091CF
:101780000001109101018090C9029090CA02C40129
:101790000E946303A090C702B090C802C5010E94D6
:1017A0006303C090C502D090C602C6010E946303C5
:1017B000E090C302F090C402C7010E94630320E0DE
:1017C00030E0A901C301B2010E94EC1125E633E823
:1017D00040E152E418160CF059C0C301B2010E9456
:1017E000441120E030E04AEF53E40E94840F0E944D
:1017F000B6116093BF027093C0028093C1029093B0
:10180000C20220E030E0A901C301B2010E941E0F14
:1018100087FF03C0119501951109B801C4010E9409
:101820006B03B801C5010E946B03B801C6010E9499
:101830006B03B801C7010E946B0361E084E00E9462
:10184000E901C8010E94F40281E090E09093CC028B
:101850008093CB026DEA71E08EEC92E00E948E03E1
:1018600042E0C301B2010E943D046DEB71E08EECD9
:1018700092E00E948E036091BF027091C00280913D
:10188000C1029091C2020E942704B4CEC301B201EA
:101890009058A5CF62ED71E0CE0101960E948F05B0
:1018A000BE016F5F7F4FCE0107960E942105182F62
:1018B000CE0101960E941905112309F4ABC02B85B6
:1018C0003C8545E050E0BE01695F7F4FCE01019647
:1018D0000E94CB0589819A81412C512C32010097BD
:1018E00021F00E946D0D2B013C01CE0101960E945A
:1018F000190500910001109101018090C90290909A
:10190000CA02C4010E946303A090C702B090C8023B
:10191000C5010E946303C090C502D090C602C601F3
:101920000E9463032090C3023090C402C1010E9450
:1019300063032BED3FE049E450E4C301B2019F771C
:101940000E94840F20E030E044E353E40E944411FD
:1019500026E938E14BE451E40E94840F25E633E8A0
:1019600040E152E40E94441120E030E04AEF53E4A9
:101970000E94840F0E94B6116093BF027093C00250
:101980008093C1029093C202EE24FF24E01AF10A70
:1019900020E030E0A901C301B2010E94EC11181649
:1019A0005CF5B701C4010E946B03B701C5010E9439
:1019B0006B03B801C6010E946B03B801C1010E940C
:1019C0006B0361E084E00E94E901C8010E94F40217
:1019D000E2E0F0E0F093CC02E093CB0268ED71E03E
:1019E0008EEC92E00E948E0342E0C301B2010E949D
:1019F0003D0460EC71E03BCFB801C4010E946B0371
:101A0000B801C5010E946B03B701C6010E946B03B8
:101A1000B701D4CF65EE71E0CE0101960E948F052B
:101A2000BE016F5F7F4FCE0107960E942105182FE0
:101A3000CE0101960E941905112309F445C02B859A
:101A40003C8549E050E0BE01695F7F4FCE010196C1
:101A50000E94CB0589819A81C12CD12C76010097F7
:101A600019F00E94710D6B01CE0101960E941905BB
:101A7000F5E6CF16D1041CF034E6C32ED12CD7FEE8
:101A800002C0D12CC12CD0920101C09200016FEE96
:101A900071E08EEC92E00E948E03609100017091E3
:101AA0000101072E000C880B990B97FF09C00E94BB
:101AB00006046CE271E08EEC92E00E948E039ACDF7
:101AC0004AE00E94C003F5CF8DEF91E00E949D0394
:101AD00091CD87E793E00C941905662777270C943E
:101AE000AD0D1F93FC0199278827BC01E894119143
:101AF0001032E9F3193010F01E30C8F31B3251F0E8
:101B00001D3249F4689406C00E94980D610F711D42
:101B1000811D911D119110531A30B0F33EF4909530
:101B20008095709561957F4F8F4F9F4F1F910895BE
:101B3000592F482F372F262F660F771F881F991F81
:101B4000660F771F881F991F620F731F841F951FD1
:101B5000660F771F881F991F0895B0E0A0E0E3EBA0
:101B6000FDE00C9475105C017B016115710519F0A5
:101B7000DB018D939C9385010F5F1F4FF501D08191
:101B80008D2F90E00E94FD0E6C01892BB9F5DD329E
:101B9000B9F50F5F1F4FD5011196DC91C1E05801D7
:101BA000F1E0AF1AB10843E050E060E770E0C50132
:101BB0000E94060F892B69F5680182E0C80ED11CCE
:101BC00045E050E06BE670E0C6010E94060F892BED
:101BD00021F4680197E0C90ED11CE114F10419F059
:101BE000D701CD92DC9260E070E080E89FEFC111F8
:101BF000FFC060E070E080E89FE7FAC05801BBCF0B
:101C0000DB3229F485010E5F1F4FF501D181C0E061
:101C1000C6CF43E050E068E670E0C5010E94060FC1
:101C2000892BE9F0F80110E000E020E030E0A901A4
:101C30005F01B0ED8B2E8D0E89E08815C8F19C2ECA
:101C4000689491F88C2F8870C2FF16C0811102C071
:101C50000F5F1F4F3196D501DC91C92DE9CFE114FB
:101C6000F10429F00E5F1F4FF7011183008360E03C
:101C700070E080EC9FE7BCC0882311F0015011098F
:101C8000A5E0B0E00E9464109B01AC01220F331F5D
:101C9000441F551F280D311D411D511D283999E93B
:101CA0003907490799E15907A8F2C6609C2ED2CF9F
:101CB000AEEF8A1206C0C3FD3CC09C2E689493F818
:101CC000C9CFDF7DD534A9F580818D3239F4C0616B
:101CD000DF011296818162E070E006C0DF018B3285
:101CE000C1F3119661E070E080535D01A61AB70A56
:101CF0008A30F8F4E0E8CE16ECE0DE065CF4B601DB
:101D0000660F771F660F771FC60ED71ECC0CDD1C23
:101D1000C80ED11C5D01FFEFAF1ABF0A8C91805332
:101D20008A30A8F1C4FF03C0D194C194D1080C0D2E
:101D30001D1DC1FF09C0E114F10431F081E0A81AB2
:101D4000B108D701AD92BC92CA01B9010E94230F1C
:101D5000C370C33009F490584B015C0120E030E0BF
:101D6000A9010E941E0F882309F440C0CFE9D0E0EA
:101D700017FF05C0119501951109C7E8D0E06E0164
:101D8000B8E1CB1AD10880E2E82EF12C0FC0D501C2
:101D9000B1CFFE0125913591459154910E191F093E
:101DA000C501B4010E94840F4B015C01D501C4013F
:101DB0000E151F0574F72497F594E794CC16DD06ED
:101DC000A9F78A2F880F8B2F881F8F3F49F020E0BB
:101DD00030E0A901C501B4010E941E0F811106C0A7
:101DE00082E290E090937E0380937D03C501B4016D
:101DF000CDB7DEB7ECE00C94911091110C94F10F7B
:101E0000803219F089508550C8F70895FB01DC0134
:101E10004150504088F08D9181341CF08B350CF48A
:101E2000805E659161341CF06B350CF4605E861B3E
:101E3000611171F3990B0895881BFCCF0E94600F0C
:101E400008F481E00895E89409C097FB3EF490956A
:101E50008095709561957F4F8F4F9F4F9923A9F083
:101E6000F92F96E9BB279395F69587957795679512
:101E7000B795F111F8CFFAF4BB0F11F460FF1BC056
:101E80006F5F7F4F8F4F9F4F16C0882311F096E9E9
:101E900011C0772321F09EE8872F762F05C0662397
:101EA00071F096E8862F70E060E02AF09A95660F50
:101EB000771F881FDAF7880F9695879597F9089509
:101EC000990F0008550FAA0BE0E8FEEF161617064B
:101ED000E807F907C0F012161306E407F50798F0B3
:101EE000621B730B840B950B39F40A2661F0232BCC
:101EF000242B252B21F408950A2609F4A140A69548
:101F00008FEF811D811D08950E94970F0C940B1077
:101F10000E94FD0F38F00E94041020F0952311F06C
:101F20000C94F40F0C94FA0F11240C943F100E949F
:101F30001C1070F3959FC1F3950F50E0551F629FE1
:101F4000F001729FBB27F00DB11D639FAA27F00D12
:101F5000B11DAA1F649F6627B00DA11D661F829F39
:101F60002227B00DA11D621F739FB00DA11D621F1E
:101F7000839FA00D611D221F749F3327A00D611D3B
:101F8000231F849F600D211D822F762F6A2F11241D
:101F90009F5750409AF0F1F088234AF0EE0FFF1F50
:101FA000BB1F661F771F881F91505040A9F79E3FA7
:101FB000510580F00C94F40F0C943F105F3FE4F354
:101FC000983ED4F3869577956795B795F795E795FD
:101FD0009F5FC1F7FE2B880F911D9695879597F906
:101FE000089599278827089597F99F6780E870E0FA
:101FF00060E008959FEF80EC089500240A9416167F
:10200000170618060906089500240A9412161306E6
:10201000140605060895092E0394000C11F4882374
:1020200052F0BB0F40F4BF2B11F460FF04C06F5F90
:102030007F4F8F4F9F4F089557FD9058440F551F66
:1020400059F05F3F71F04795880F97FB991F61F03A
:102050009F3F79F087950895121613061406551FB1
:10206000F2CF4695F1DF08C0161617061806991F1D
:10207000F1CF86957105610508940895E894BB2712
:1020800066277727CB0197F90895052E97FB1EF455
:1020900000940E945C1057FD07D00E94A61007FC18
:1020A00003D04EF40C945C105095409530952195DA
:1020B0003F4F4F4F5F4F0895909580957095619574
:1020C0007F4F8F4F9F4F08950E94C810A59F900D7E
:1020D000B49F900DA49F800D911D112408952F92FF
:1020E0003F924F925F926F927F928F929F92AF92A8
:1020F000BF92CF92DF92EF92FF920F931F93CF93F5
:10210000DF93CDB7DEB7CA1BDB0B0FB6F894DEBF8B
:102110000FBECDBF09942A88398848885F846E84B1
:102120007D848C849B84AA84B984C884DF80EE80FB
:10213000FD800C811B81AA81B981CE0FD11D0FB604
:10214000F894DEBF0FBECDBFED010895A1E21A2EB7
:10215000AA1BBB1BFD010DC0AA1FBB1FEE1FFF1F4B
:10216000A217B307E407F50720F0A21BB30BE40B9B
:10217000F50B661F771F881F991F1A9469F76095E2
:102180007095809590959B01AC01BD01CF0108959C
:10219000A29FB001B39FC001A39F700D811D1124A8
:1021A000911DB29F700D811D1124911D08955058ED
:1021B000BB27AA270E94EF100C940B100E94FD0F62
:1021C00038F00E94041020F039F49F3F19F426F4EF
:1021D0000C94FA0F0EF4E095E7FB0C94F40FE92F42
:1021E0000E941C1058F3BA176207730784079507FB
:1021F00020F079F4A6F50C943E100EF4E0950B2E29
:10220000BA2FA02D0B01B90190010C01CA01A00148
:102210001124FF27591B99F0593F50F4503E68F1A3
:102220001A16F040A22F232F342F4427585FF3CFE4
:10223000469537952795A795F0405395C9F77EF4B5
:102240001F16BA0B620B730B840BBAF09150A1F0FE
:10225000FF0FBB1F661F771F881FC2F70EC0BA0F84
:10226000621F731F841F48F4879577956795B7950C
:10227000F7959E3F08F0B0CF9395880F08F0992707
:10228000EE0F9795879508950E9458110C940B10A6
:102290000E94041058F00E94FD0F40F029F45F3FA7
:1022A00029F00C94F40F51110C943F100C94FA0F78
:1022B0000E941C1068F39923B1F3552391F3951BE9
:1022C000550BBB27AA2762177307840738F09F5F57
:1022D0005F4F220F331F441FAA1FA9F335D00E2EC4
:1022E0003AF0E0E832D091505040E695001CCAF731
:1022F0002BD0FE2F29D0660F771F881FBB1F2617F4
:1023000037074807AB07B0E809F0BB0B802DBF01CA
:10231000FF2793585F4F3AF09E3F510578F00C9499
:10232000F40F0C943F105F3FE4F3983ED4F386958E
:1023300077956795B795F7959F5FC9F7880F911DBA
:102340009695879597F90895E1E0660F771F881FA6
:10235000BB1F621773078407BA0720F0621B730B59
:10236000840BBA0BEE1F88F7E09508950E94BD110B
:102370006894B1110C943F1008950E94241088F0C5
:102380009F5798F0B92F9927B751B0F0E1F0660F39
:10239000771F881F991F1AF0BA95C9F714C0B1307A
:1023A00091F00E943E10B1E008950C943E10672F0A
:1023B000782F8827B85F39F0B93FCCF386957795A9
:1023C0006795B395D9F73EF4909580957095619592
:1023D0007F4F8F4F9F4F08950E94600F08F48FEF3B
:1023E00008950E94600F880B990B08950E94C810F1
:1023F000B7FF0895821B930B0895EE0FFF1F059002
:10240000F491E02D09940F931F93CF93DF938230C3
:10241000910510F482E090E0E0918103F091820355
:1024200030E020E0B0E0A0E0309799F421153105CC
:1024300009F44AC0281B390B24303105D8F58A81AC
:102440009B816115710589F1FB0193838283FE01F4
:1024500011C0408151810281138148175907E0F072
:102460004817590799F4109761F012960C93129738
:1024700013961C933296CF01DF91CF911F910F914C
:1024800008950093810310938203F4CF2115310541
:1024900051F04217530738F0A901DB019A01BD0141
:1024A000DF01F801C1CFEF01F9CF90938203809350
:1024B0008103CDCFFE01E20FF31F81939193225050
:1024C000310939832883D7CF20917F03309180034E
:1024D000232B41F4209104013091050130938003B6
:1024E00020937F03209102013091030121153105D2
:1024F00041F42DB73EB74091060150910701241BCE
:10250000350BE0917F03F0918003E217F307A0F40D
:102510002E1B3F0B2817390778F0AC014E5F5F4F39
:102520002417350748F04E0F5F1F509380034093E8
:102530007F03819391939FCFF0E0E0E09CCFCF9316
:10254000DF930097E9F0FC01329713821282A09189
:102550008103B0918203ED0130E020E01097A1F4F7
:1025600020813181820F931F20917F03309180035E
:102570002817390709F061C0F0938003E0937F03C7
:10258000DF91CF910895EA01CE17DF07E8F54A8180
:102590005B819E0141155105B1F7E901FB83EA8397
:1025A00049915991C40FD51FEC17FD0761F4808143
:1025B00091810296840F951FE90199838883828116
:1025C00093819B838A83F0E0E0E012968D919C9149
:1025D00013970097B9F52D913C911197CD01029673
:1025E000820F931F20917F033091800328173907B2
:1025F00039F6309751F51092820310928103B0930F
:102600008003A0937F03BCCFD383C28340815181D9
:10261000840F951FC817D90761F44E5F5F4F8881FB
:102620009981480F591F518340838A819B819383ED
:1026300082832115310509F0B0CFF0938203E09336
:1026400081039ECFFD01DC01C0CF13821282D7CF60
:10265000B0E0A0E0EEE2F3E10C9471108C01009781
:1026600051F4CB010E9403128C01C801CDB7DEB733
:10267000E0E10C948D10FC01E60FF71F9C01225045
:102680003109E217F30708F49DC0D901CD91DC911F
:102690001197C617D70798F0C530D10530F3CE0192
:1026A00004978617970708F3C61BD70B2297C19389
:1026B000D1936D937C93CF010E949F12D6CF5B0183
:1026C000AC1ABD0A4C018C0E9D1EA0918103B091E5
:1026D0008203512C412CF12CE12C109731F5809183
:1026E0007F03909180038815990509F05CC0461618
:1026F000570608F058C0809102019091030100979D
:1027000041F48DB79EB74091060150910701841B9B
:10271000950BE817F90708F055C0F0938003E09394
:102720007F03F90171836083A0CF8D919C911197F4
:1027300012966C90129713967C901397A815B90572
:1027400059F56C0142E0C40ED11CCA14DB0420F11F
:10275000AC014A195B09DA011296159780F0628282
:10276000738251834083D9016D937C93E114F1040A
:1027700071F0D7011396FC93EE93129776CF2296C1
:102780008C0F9D1FF90191838083F301EFCFF093AC
:102790008203E093810369CF4816590608F42C019F
:1027A0007D01D3019ACFCB010E9403127C010097D7
:1027B00049F0AE01B8010E94ED13C8010E949F12BA
:1027C000870153CF10E000E050CF9111089581565A
:1027D0008A5108F4805285580895FB01DC0102C03B
:1027E00001900D9241505040D8F70895FB01DC0153
:1027F00001900D920020E1F70895FB01DC014150AA
:10280000504030F08D910190801919F40020B9F7F3
:10281000881B990B089510E0CBE7D0E004C0FE01BF
:102820000E94FD112196CC37D107C9F7F894FFCF4C
:102830003200000083038000000000007C01DC0007
:102840000901C9013A0118012C0100000000E00251
:10285000D502F102AB02CE02BB02AC020D0A004D62
:102860006F746F72732053544F505045442E006E56
:10287000616E00696E66006F7666005452554500C1
:1028800046414C534500526F626F7420403078309F
:10289000382073746172742E2E2E004932432053F7
:1028A0006C6176652072656164792E205761697468
:1028B000696E6720666F7220636F6D6D616E647301
:1028C0002E2E2E0049324320636F6D6D616E643A87
:1028D000200053544F50004D4F564520004D4F5649
:1028E000453A2064697374616E63653D0020636DD1
:1028F000203D3E20746172676574436F756E74731A
:102900003D005455524E20005455524E3A20616EAF
:10291000676C653D00534554535045454420005372
:10292000657420737065656420746F2000556E6B4C
:102930006E6F776E20636F6D6D616E6420286967BE
:082940006E6F726564292E0020
:107800000C94343C0C94513C0C94513C0C94513CE1
:107810000C94513C0C94513C0C94513C0C94513CB4
:107820000C94513C0C94513C0C94513C0C94513CA4
:107830000C94513C0C94513C0C94513C0C94513C94
:107840000C94513C0C94513C0C94513C0C94513C84
:107850000C94513C0C94513C0C94513C0C94513C74
:107860000C94513C0C94513C11241FBECFEFD8E036
:10787000DEBFCDBF11E0A0E0B1E0ECE9FFE702C060
:1078800005900D92A230B107D9F712E0A2E0B1E065
:1078900001C01D92AD30B107E1F70E942D3D0C945F
:1078A000CC3F0C94003C982F959595959595959582
:1078B000905D8F708A307CF0282F295A8091C0000B
:1078C00085FFFCCF9093C6008091C00085FFFCCF60
:1078D0002093C6000895282F205DF0CF982F809127
:1078E000C00085FFFCCF9093C6000895EF92FF92F1
:1078F0000F931F93EE24FF2487018091C00087FD22
:1079000017C00894E11CF11C011D111D81E4E8164B
:1079100082E4F8068FE0080780E0180770F3E09132
:107920000401F091050109958091C00087FFE9CF1E
:107930008091C6001F910F91FF90EF9008950E94D3
:10794000763C982F8091C00085FFFCCF9093C600B5
:1079500091362CF490330CF09053892F089597555D
:10796000892F08951F930E949F3C182F0E949F3CCF
:107970001295107F810F1F9108951F93182F882350
:1079800021F00E94763C1150E1F71F9108951F935A
:10799000182F0E94763C803249F0809103018F5F5E
:1079A000809303018530C1F01F9108958091C0003C
:1079B00085FFFCCF84E18093C6008091C00085FFE5
:1079C000FCCF1093C6008091C00085FFFCCF80E102
:1079D0008093C6001F910895E0910401F091050184
:1079E00009951F9108950E94763C803241F0809164
:1079F00003018F5F80930301853081F008958091AA
:107A0000C00085FFFCCF84E18093C6008091C00058
:107A100085FFFCCF80E18093C6000895E0910401CA
:107A2000F09105010995089540E951E08823A1F0FE
:107A30002D9A28EE33E0FA013197F1F721503040CA
:107A4000D1F72D9828EE33E0FA013197F1F7215064
:107A50003040D1F7815061F708953F924F925F9285
:107A60006F927F928F929F92AF92BF92CF92DF924E
:107A7000EF92FF920F931F93CF93DF93000080E16B
:107A80008093C4001092C50088E18093C10086E015
:107A90008093C2005098589A259A81E00E94143D24
:107AA00024E1F22E9EE1E92E85E9D82E0FE0C02ECA
:107AB00010E1B12EAA24A394B1E49B2EA6E58A2E50
:107AC000F2E57F2EE0E26E2E79E4572E63E5462E36
:107AD00050E5352E0E94763C8033B1F18133B9F107
:107AE000803409F46FC0813409F476C0823409F41B
:107AF00085C0853409F488C0803531F1823521F1A3
:107B0000813511F1853509F485C0863509F48DC0BC
:107B1000843609F496C0843709F403C1853709F423
:107B200072C1863709F466C0809103018F5F80932C
:107B30000301853079F6E0910401F0910501099582
:107B40000E94763C803351F60E94F33CC3CF0E94E2
:107B5000763C803249F78091C00085FFFCCFF092DF
:107B6000C6008091C00085FFFCCF9092C600809136
:107B7000C00085FFFCCF8092C6008091C00085FFC9
:107B8000FCCF7092C6008091C00085FFFCCF609250
:107B9000C6008091C00085FFFCCF5092C600809146
:107BA000C00085FFFCCF4092C6008091C00085FFD9
:107BB000FCCF3092C6008091C00085FFFCCFB09210
:107BC000C60088CF0E94763C863808F4BDCF0E945C
:107BD000763C0E94F33C7ECF0E94763C803809F4CC
:107BE0009CC0813809F40BC1823809F43CC1883942
:107BF00009F48FC080E00E94C73C6CCF84E10E94F2
:107C0000BD3C0E94F33C66CF85E00E94BD3C0E94D3
:107C1000F33C60CF0E94763C809306010E94763C44
:107C2000809307010E94F33C55CF0E94763C80333D
:107C300009F41DC183E00E94BD3C80E00E94C73C66
:107C400049CF0E94763C809309020E94763C809343
:107C5000080280910C028E7F80930C020E94763C79
:107C6000853409F415C18091080290910902892B8D
:107C700089F000E010E00E94763CF801E85FFE4FDA
:107C800080830F5F1F4F80910802909109020817AF
:107C9000190788F30E94763C803209F045CF809125
:107CA0000C0280FF01C16091060170910701660F0F
:107CB000771F7093070160930601A0910802B091AD
:107CC00009021097C9F0E8E0F1E09B01AD014E0F09
:107CD0005F1FF999FECF32BD21BD819180BDFA9A17
:107CE000F99A2F5F3F4FE417F50799F76A0F7B1F4B
:107CF00070930701609306018091C00085FFFCCF5F
:107D0000F092C6008091C00085FFFCCFB092C60003
:107D1000E1CE83E00E94C73CDDCE82E00E94C73CFA
:107D2000D9CE0E94763C809309020E94763C8093D3
:107D300008028091060190910701880F991F909386
:107D40000701809306010E94763C853409F4A6C0A1
:107D500080910C028E7F80930C020E94763C8032D0
:107D600009F0B8CE8091C00085FFFCCFF092C6002C
:107D7000609108027091090261157105B9F140E046
:107D800050E080910C02A82FA170B82FB27011C0E2
:107D9000BB2309F45CC0E0910601F0910701319624
:107DA000F0930701E09306014F5F5F4F46175707B7
:107DB000E8F4AA2369F3F999FECF209106013091E6
:107DC000070132BD21BDF89A90B58091C00085FFB2
:107DD000FCCF9093C6002F5F3F4F30930701209355
:107DE00006014F5F5F4F4617570718F38091C00099
:107DF00085FDE5CE8091C00085FFF8CFE0CE81E023
:107E00000E94C73C67CE0E94763C803209F08CCE3F
:107E10008091C00085FFFCCFF092C6008091C00029
:107E200085FFFCCFE092C6008091C00085FFFCCFAB
:107E3000D092C6008091C00085FFFCCFC092C600E2
:107E40008091C00085FFFCCFB092C60043CEE09188
:107E50000601F091070194918091C00085FFFCCF4D
:107E60009093C6009CCF80E10E94C73C33CE0E9415
:107E7000763C0E94763C182F0E94763C112309F430
:107E800083C0113009F484C08FE00E94C73C22CE29
:107E900080910C02816080930C02E5CE80910C02EF
:107EA000816080930C0259CF809107018823880F4D
:107EB000880B8A2180930B02809106019091070123
:107EC000880F991F90930701809306018091080203
:107ED00080FF09C080910802909109020196909359
:107EE000090280930802F894F999FECF1127E091D6
:107EF0000601F0910701C8E0D1E08091080290915D
:107F00000902103091F40091570001700130D9F34B
:107F100003E000935700E89500915700017001308D
:107F2000D9F301E100935700E89509901990009169
:107F3000570001700130D9F301E000935700E89534
:107F40001395103498F011270091570001700130FB
:107F5000D9F305E000935700E895009157000170B0
:107F60000130D9F301E100935700E895329602976A
:107F700009F0C7CF103011F00296E5CF112480919F
:107F8000C00085FFB9CEBCCE8EE10E94C73CA2CD19
:0E7F900085E90E94C73C9ECDF894FFCF80008B
:00000001FF
